:1000000055C00000F1C000006EC0000028C1000013
:1000100052C2000068C0000066C0000064C000005A
:1000200062C0000060C000005EC000005CC0000054
:100030005AC0000058C0000056C00000C5C20000F1
:1000400052C0000050C000004EC000004CC0000074
:100050004AC0000048C0000046C0000044C0000084
:1000600042C0000040C000003EC000003CC0000094
:100070003AC0000038C0000036C0000034C00000A4
:1000800032C0000030C000002EC000006E017701B9
:100090008001890192019B01A401AD01EE01F701EC
:1000A0000002090212021B0224022D0211241FBEAB
:1000B000CFEFD0E1DEBFCDBF11E0A0E0B1E0E2E2E2
:1000C000FCE000E00BBF02C007900D92A236B10722
:1000D000D9F721E0A2E6B1E001C01D92AE37B20728
:1000E000E1F75CD59CC58CCF8FEF8ABB8FE0809306
:1000F00064000895E5E6F0E090819460908390813B
:100100009D7F908390819160908396EF9A95F1F70F
:100110008BBB86EF8A95F1F780818E7F808308956F
:10012000E5E6F0E090819B7F908390819D7F9083B6
:1001300090819160908396EF9A95F1F78BBB86EF53
:100140008A95F1F780818E7F80830895D3DF8CECD0
:100150009CE10197F1F700C000000895CF93DF9371
:10016000EC018881882329F02196F0DF89918111A3
:10017000FCCFDF91CF91089581E0D2DF8CEC9CE140
:100180000197F1F700C00000089588E3C9DF8CEC07
:100190009CE10197F1F700C0000088E3C1DF8CEC1F
:1001A0009CE10197F1F700C000008EE0B9DF8CEC14
:1001B0009CE10197F1F700C000008EE0B1DF8CEC0C
:1001C0009CE10197F1F700C0000086E0A9DF8CEC0C
:1001D0009CE10197F1F700C00000CECF089583E6BF
:1001E00081BF82E087BF08951F920F920FB60F92D2
:1001F00011248F938FE083BF80916F018F5F809375
:100200006F0110926301833031F481E080936A01C1
:1002100010926F011EC0823091F4809165018F5F52
:100220008093650110926A0110922C011092620174
:1002300010926B0110926C0110926D010AC0813016
:1002400041F41092760110927D0110927301809317
:1002500064018F910F900FBE0F901F9018951F9201
:100260000F920FB60F9211240BB60F928F939F939C
:10027000AF93BF93EF93FF9380916901811109C000
:1002800090916D019F5F983109F0F7C010926D0158
:1002900016C0813049F480916C018F5F8C3309F076
:1002A000EFC010926C0168C0823049F480916B01FC
:1002B0008F5F8C3309F0E7C010926B015DC0833013
:1002C00009F05AC0E09162018E2F90E088309105CC
:1002D00008F04DC0FC01EA5BFF4F84C4E0E7F1E0A9
:1002E0008DE480838FE681838EE6828340C0E0E7E1
:1002F000F1E084E5808385E7818385E6828337C0EA
:10030000E0E7F1E087E5808385E6818384E6828308
:100310002EC0E0E7F1E084E5808388E6818385E70D
:10032000828325C0E0E7F1E086E4808382E7818371
:1003300089E682831CC0E0E7F1E083E5808381E603
:10034000818384E7828313C0E0E7F1E083E5808363
:1003500085E781838EE682830AC0E0E7F1E08DE4E1
:1003600080838FE681838EE6828310926201809182
:1003700062018F5F8093620180912C01811109C01D
:1003800090916D019F5F983109F080C010926D01CE
:1003900016C0813049F480916C018F5F8C3309F075
:1003A00078C010926C017AC0823049F480916B0160
:1003B0008F5F8C3309F070C010926B016FC0833077
:1003C00009F06CC0E09162018E2F90E088309105B9
:1003D00008F04DC0FC01E25BFF4F04C4E0E7F1E030
:1003E0008DE480838FE681838EE6828340C0E0E7E0
:1003F000F1E084E5808385E7818385E6828337C0E9
:10040000E0E7F1E087E5808385E6818384E6828307
:100410002EC0E0E7F1E084E5808388E6818385E70C
:10042000828325C0E0E7F1E086E4808382E7818370
:1004300089E682831CC0E0E7F1E083E5808381E602
:10044000818384E7828313C0E0E7F1E083E5808362
:1004500085E781838EE682830AC0E0E7F1E08DE4E0
:1004600080838FE681838EE6828310926201809181
:1004700062018F5F8093620111C090936D011FCF65
:1004800080936C0179CF80936B0176CF90936D014F
:1004900096CF80936C0102C080936B01FF91EF9126
:1004A000BF91AF919F918F910F900BBE0F900FBE98
:1004B0000F901F9018951F920F920FB60F92112454
:1004C0000BB60F922F933F934F935F936F937F934E
:1004D0008F939F93AF93BF93EF93FF9380916401AA
:1004E000813049F480916F01813029F445DE81E04B
:1004F0008093630113BE80916901811108C08091CE
:100500006D0180937A0181E0809369011EC0813082
:1005100041F480916C0180937B0182E080936901BA
:1005200014C0823041F480916B0180937C0183E0A0
:10053000809369010AC0833041F484E080936901AB
:100540008FE083BF81E080936A0180912C0181114B
:1005500008C080916D018093680181E080932C0137
:1005600020C0813041F480916C018093670182E06A
:1005700080932C0116C0823041F480916B018093EE
:10058000660183E080932C010CC0833051F484E039
:1005900080932C018FE083BF81E080936A011092E9
:1005A0006F01FF91EF91BF91AF919F918F917F91DB
:1005B0006F915F914F913F912F910F900BBE0F90D4
:1005C0000FBE0F901F9018951F920F920FB60F92AB
:1005D00011248F939F9380917401909175010196DE
:1005E0008039910529F0909375018093740138C08A
:1005F000109275011092740180917C018F5F80933D
:100600007C01909176019F5F909376018C3370F01E
:1006100080917B018F5F80937B0180917D018F5F53
:1006200080937D0110927C011092760180917B0174
:100630008C3370F080917A018F5F80937A01809182
:1006400073018F5F8093730110927B0110927D0183
:1006500080917A01883120F010927A011092730112
:100660009F918F910F900FBE0F901F901895CF9371
:10067000DF9380E855DD83E291E070DD89E850DDAD
:1006800080E791E06BDD9091680180917A01981389
:1006900035C09091670180917B0198132FC0909194
:1006A000660180917C01981329C018BA2FEF3FEFA3
:1006B0008CE2215030408040E1F700C000008FEF15
:1006C00088BB9FEF2FEF3CE2915020403040E1F794
:1006D00000C0000018BA9FEF2FEF3CE2915020407D
:1006E0003040E1F700C0000088BB8FEF9FEF2CE2A5
:1006F000815090402040E1F700C0000080917A01D5
:100700008D30E8F080EC0CDD8BE191E027DD83ECAF
:1007100007DD80917A0190E00C97CAE0D0E0BE013D
:100720004ED280E3860F12DD80917A0190E00C9723
:10073000BE0145D2805D0ADD8AE308DD24C080EC7D
:10074000EFDC8FE191E00ADD83ECEADC80917A0155
:10075000CDEC8C9F812D1124869586958695805DA4
:10076000F5DC80917A018C9FC12D1124C695C69528
:10077000C695CC0F9C2F990F990FC90F8C1B805DCC
:10078000E5DC8AE3E3DC86ECCBDC80917B01CDEC1D
:100790008C9F812D1124869586958695805DD6DC6B
:1007A00080917B018C9F912D11249695969596951D
:1007B000990F292F220F220F920F891B805DC6DC13
:1007C0008AE3C4DC89ECACDC80917C018C9F812DB8
:1007D0001124869586958695805DB8DC80917C0194
:1007E0008C9FC12D1124C695C695C695CC0F9C2F04
:1007F000990F990FC90F8C1B805DA8DC80E2A6DCE5
:100800008CEC8EDC80E2A2DC80E2A0DC80E29EDC6C
:10081000DF91CF910895CF93DF9380916301813071
:1008200031F480E87DDC80E091E098DC05C080E870
:1008300077DC8EE091E092DC80EC72DC80917301D9
:10084000CDEC8C9F812D1124869586958695805DB3
:100850007DDC809173018C9F912D11249695969546
:100860009695990F292F220F220F920F891B805DD9
:100870006DDC8AE36BDC83EC53DC80917D018C9F23
:10088000812D1124869586958695805D5FDC80910B
:100890007D018C9F912D1124969596959695990F93
:1008A000292F220F220F920F891B805D4FDC8AE3D4
:1008B0004DDC86EC35DC809176018C9F812D1124F6
:1008C000869586958695805D41DC809176018C9F2A
:1008D000C12D1124C695C695C695CC0F9C2F990F96
:1008E000990FC90F8C1B805D31DC8EE22FDC89EC07
:1008F00017DC8091740190917501CAE0D0E0BE01CF
:100900005ED1CB01BE015BD1805D20DC80917401A2
:1009100090917501BE0153D1805D18DCDF91CF91BC
:100920000895CF9329DC80916A01813011F424DC91
:1009300069C0CDEC80E8F4DB8DE291E00FDC80EC67
:10094000EFDB80916D018C9F812D1124869586951A
:100950008695805DFBDB80916D018C9F912D11242C
:10096000969596959695990F292F220F220F920F03
:10097000891B805DEBDB8AE3E9DB83ECD1DB8091D3
:100980006C018C9F812D1124869586958695805DBE
:10099000DDDB80916C018C9F912D112496959695AD
:1009A0009695990F292F220F220F920F891B805D98
:1009B000CDDB8AE3CBDB86ECB3DB80916B018C9FD4
:1009C000812D1124869586958695805DBFDB80916B
:1009D0006B018C9F912D1124969596959695990F64
:1009E000292F220F220F920F891B805DAFDB8AEC2B
:1009F00097DB80E791E0B2DB80916A01813009F0FA
:100A000099CF95CFCF9108951092750110927401EE
:100A100010927B0110927C018CE080937A011092FD
:100A20006F011092760110927D0110927301109265
:100A30006E01F8948FE089BF8AEA80936A00789407
:100A400053DB11BA8FEF87BB88BB9FDB95DB80E858
:100A500067DB83E291E082DBC2CB0895CF938CDB2E
:100A600080916A01813059F487DB2FEF8FE79DE099
:100A7000215080409040E1F700C0000069C0CDECFB
:100A800080E84EDB8CE391E069DB80EC49DB809110
:100A90006D018C9F812D1124869586958695805DAC
:100AA00055DB80916D018C9F912D11249695969523
:100AB0009695990F292F220F220F920F891B805D87
:100AC00045DB8AE343DB83EC2BDB80916C018C9F5D
:100AD000812D1124869586958695805D37DB8091E2
:100AE0006C018C9F912D1124969596959695990F52
:100AF000292F220F220F920F891B805D27DB8AE3AB
:100B000025DB86EC0DDB80916B018C9F812D112400
:100B1000869586958695805D19DB80916B018C9F0B
:100B2000912D1124969596959695990F292F220F20
:100B3000220F920F891B805D09DB8AECF1DA80E7D6
:100B400091E00CDB80916A01813009F099CF8CCF64
:100B5000CF910895CF9310DBC3E083E8E1DA8AE414
:100B600091E0FCDA82ECDCDA85E591E0F7DA2FEF50
:100B70008FE796E1215080409040E1F700C00000EF
:100B8000FBDA2FEF8FE796E1215080409040E1F7AC
:100B900000C00000C15009F7CF91089535DFDADFBA
:100BA0005DDF80916F01813031F018F0823029F0E3
:100BB000FACF5DDDF6CF2FDEF4CFB3DEF2CF97FBB9
:100BC000072E16F4009406D077FD08D014D007FC49
:100BD00005D03EF4909581959F4F0895709561954D
:100BE0007F4F0895EE0FFF1F0024001C0BBE0790DF
:100BF000F691E02D0994AA1BBB1B51E107C0AA1F67
:100C0000BB1FA617B70710F0A61BB70B881F991FAD
:100C10005A95A9F780959095BC01CD010895F89457
:020C2000FFCF04
:100C220053544F5057415443483A4F464600535449
:100C32004F5057415443483A4F4E00504D200041C7
:100C42004D20003230323020312F350006534554CA
:100C520054494E4720414C41524D3A005345545459
:100C6200494E472054494D453A0057454C434F4D54
:100C72004520544F00576164754465562031362D26
:020C820033003D
:00000001FF
